:020000040800F2
:1000000000000220DD190008E9070008EB070008DE
:10001000ED070008EF070008F107000800000000E6
:10002000000000000000000000000000F3070008CE
:10003000F507000800000000F7070008F9070008AE
:100040002D1A00082D1A00082D1A00082D1A000874
:100050002D1A00082D1A00082D1A00082D1A000864
:100060002D1A00082D1A00082D1A00082D1A000854
:100070002D1A00082D1A00082D1A00082D1A000844
:100080002D1A00082D1A00082D1A00080000000083
:100090000000000000000000000000002D1A000811
:1000A0002D1A00082D1A00082D1A00082D1A000814
:1000B0002D1A00082D1A00082D1A00082D1A000804
:1000C0002D1A00082D1A00082D1A00082D1A0008F4
:1000D0002D1A00082D1A00082D1A00080000000033
:1000E0002D1A00082D1A00082D1A00080000000023
:1000F0000000000000000000000000002D1A0008B1
:10010000000000002D1A00082D1A00082D1A000802
:1001100000000000000000000000000000000000DF
:100120002D1A00082D1A00082D1A00082D1A000893
:100130002D1A000800000000000000000000000070
:100140000000000000000000000000002D1A000860
:100150002D1A00082D1A00082D1A00082D1A000863
:100160002D1A00082D1A00080000000000000000F1
:10017000000000000000000000000000000000007F
:10018000000000002D1A0008000000000000000020
:080190002D1A00082D1A0008C9
:100198000348044B834202D0034B03B1184770470E
:1001A800100000201000002000000000054806494B
:1001B800091A891001EBD171491002D0034B03B120
:1001C80018477047100000201000002000000000B1
:1001D80010B5064C237843B9FFF7DAFF044B13B187
:1001E8000448AFF300800123237010BD10000020E5
:1001F80000000000301A000808B5044B1BB1044980
:100208000448AFF30080BDE80840CFE700000000D5
:1002180014000020301A000870B50D4E0D4D761BE5
:10022800B61006D00024013455F8043B9847A6427E
:10023800F9D1094E094D761B01F0F6FBB61006D030
:100248000024013455F8043B9847A642F9D170BD03
:10025800601A0008601A0008641A0008601A00088A
:10026800F0B4860746D0541E002A3CD0CAB20346D2
:1002780002E014F1FF3436D303F8012B9D07F8D1BF
:10028800032C29D9CDB245EA05250F2C45EA0545A9
:1002980033D9A4F11006360903F1200707EB061736
:1002A80003F1100242E9045542E902551032BA42FC
:1002B800F8D1721C14F00C0F03EB021204F00F06B5
:1002C80013D0331F23F003030433134442F8045BB1
:1002D8009342FBD106F003042CB1C9B21C4403F8C5
:1002E800011B9C42FBD1F0BC704734461346002CDE
:1002F800F3D1F8E714460346C2E71A462646E0E774
:1003080053B94AB9002908BF00281CBF4FF0FF3174
:100318004FF0FF3000F074B9ADF1080C6DE904CE70
:1003280000F006F8DDF804E0DDE9022304B07047C8
:100338002DE9F047089E04468846002B40F085804A
:100348008A42154648D9B2FA82F24AB1C2F1200768
:1003580001FA02F320FA07F7954047EA03089440A8
:100368004FEA154E230CB8FBFEF71FFA85FC0EFB6F
:10037800178843EA084307FB0CF1994209D9EB189F
:1003880007F1FF3080F0E380994240F2E080023FBD
:100398002B445B1AA4B2B3FBFEF00EFB103344EA05
:1003A800034400FB0CFCA44509D92C1900F1FF33C8
:1003B80080F0CB80A44540F2C88002382C4440EA43
:1003C8000740A4EB0C0400271EB1D4400023C6E963
:1003D80000433946BDE8F087002A53D0B2FA82F2CA
:1003E800002A40F0B680491B4FEA154E1FFA85F8DF
:1003F8000127B1FBFEFC230C0EFB1C1143EA014351
:1004080008FB0CF1994207D9EB180CF1FF3002D226
:10041800994200F2EC808446591AA3B2B1FBFEF06F
:100428000EFB101443EA044408FB00F8A04507D962
:100438002C1900F1FF3302D2A04500F2DC801846E7
:10044800A4EB080440EA0C40BEE78B4208D9002E12
:1004580078D00027C6E9000138463946BDE8F0875C
:10046800B3FA83F77FB98B4202D3824200F2BD8090
:10047800841A61EB030301209846002EA9D0C6E92F
:100488000048A6E7FFDEC7F12005BB4022FA05FCBD
:100498004CEA030C01FA07F420FA05F821FA05F3EF
:1004A8004FEA1C4E48EA0404B3FBFEF9210C0EFB8C
:1004B80019331FFA8CF841EA034309FB08FA9A45F5
:1004C80002FA07F200FA07F10BD91CEB030309F152
:1004D800FF3080F088809A4540F28580A9F10209B2
:1004E8006344A3EB0A03A4B2B3FBFEF00EFB103384
:1004F80044EA034400FB08F8A04508D91CEB0404AF
:1005080000F1FF336BD2A04569D90238644440EA50
:100518000940A4EB0804A0FB02894C45C6464B469B
:1005280054D351D0002E69D0B1EB0E0264EB030412
:1005380004FA05F522FA07F3FC401D43C6E9005406
:10054800002746E73746304643E7184637E7074669
:100558001FE7C2F1200320FA03F7954001FA02F0E1
:1005680021FA03F34FEA154E3843010CB3FBFEF7AB
:100578001FFA85F80EFB173341EA034107FB08F31E
:100588008B4204FA02F407D9691807F1FF3C28D214
:100598008B4226D9023F2944CB1A81B2B3FBFEF025
:1005A8000EFB103341EA034100FB08F38B4207D9E5
:1005B800691800F1FF3C10D28B420ED90238294449
:1005C800C91A40EA074714E74145ABD2B8EB020E17
:1005D80069EB0C0201381346A4E76046F0E71846B9
:1005E80095E76746D8E781467BE7384645E7ACF1AB
:1005F800020C2B4410E702382C4421E73746E8E682
:10060800704700BFF0B589B00024039404940594A2
:10061800069407940094244B1A6B42F004021A6360
:100628001A6B02F004020092009A01941A6B42F0CD
:1006380080021A631A6B02F080020192019A0294F6
:100648001A6B42F001021A631B6B03F00103029359
:10065800029B164F22464FF40051384600F0F6FC34
:10066800134E22461E21304600F0F0FC4FF4005392
:100678000393012504950594069403A9384600F0D0
:100688000DFC03950494059503A9304600F006FC7B
:100698001E230393049505940223069303A9304669
:1006A80000F0FCFB09B0F0BD003802400008024031
:1006B8000000024072B6FEE708B50E480E4B036014
:1006C8004FF4827343604FF4004383600023C36098
:1006D800036143614FF4007282610822C2610362C0
:1006E800436283620A23C36200F028FE00B908BD92
:1006F800FFF7E0FF2C0000200030014000B595B066
:100708003022002108A8FFF7ABFD002303930493D0
:1007180005930693079301931F4A116C41F080518A
:100728001164126C02F080520192019A02931B4BE1
:100738001A6842F440421A601B6803F4404302936B
:10074800029B012308934FF48033099302230E93ED
:100758004FF480020F920C22109260221192129391
:100768000423139308A800F09BF888B90F23039378
:1007780002230493002305934FF4805206920793B3
:10078800032103A800F0DAFA20B915B05DF804FBDC
:10079800FFF790FFFFF78EFF00380240007000401F
:1007A80008B500F0E5FCFFF7A9FFFFF72BFFFFF7FF
:1007B80083FF0221084800F04FFC00F0D1FF4FF4FE
:1007C800FC6001F0D1F8642000F0FEFC4FF4005109
:1007D800024800F041FCF6E7000002400008024031
:1007E800FEE7FEE7FEE7FEE7FEE770477047704763
:1007F80008B500F0D7FC08BD82B0002100910B4B72
:100808005A6C42F480425A645A6C02F48042009254
:10081800009A01911A6C42F080521A641B6C03F022
:1008280080530193019B02B0704700BF003802401B
:1008380000B589B0002303930493059306930793A7
:100848000268154B9A4202D009B05DF804FB0021FA
:10085800019103F584335A6C42F480525A645A6CFD
:1008680002F480520192019A02911A6B42F001023D
:100878001A631B6B03F001030293029BA0230393EB
:1008880002230493032306930523079303A903482C
:1008980000F004FBD8E700BF003001400000024030
:1008A800002800F0DF8170B582B00446036813F0B9
:1008B800010F3BD0A64B9B6803F00C03042B2CD0F4
:1008C800A34B9B6803F00C03082B21D06368B3F596
:1008D800803F4FD0B3F5A02F52D09D4B1A6822F419
:1008E80080321A601A6822F480221A606368002B2A
:1008F80050D000F063FC0546954B1B6813F4003F8D
:1009080014D100F05BFC401B6428F5D90320B0E14A
:100918008F4B5B6813F4800FD8D08D4B1B6813F492
:10092800003F03D06368002B00F09E81236813F01A
:10093800020F54D0864B9B6813F00C0F3ED0844BAB
:100948009B6803F00C03082B33D0E368002B67D0B7
:10095800804B01221A6000F031FC05467C4B1B6875
:1009680013F0020F53D100F029FC401B0228F5D9DF
:1009780003207EE1764A136843F480331360B5E7B9
:10098800734B1A6842F480221A601A6842F4803263
:100998001A60ABE700F012FC05466D4B1B6813F4B8
:1009A800003FC3D000F00AFC401B6428F5D903209F
:1009B8005FE1674B5B6813F4800FC6D1644B1B681B
:1009C80013F0020F03D0E368012B40F04F81604A17
:1009D800136823F0F803216943EAC103136023680D
:1009E80013F0080F40D0636963B35B4B01221A60B0
:1009F80000F0E4FB0546564B5B6F13F0020F33D152
:100A080000F0DCFB401B0228F5D9032031E1504AF5
:100A1800136823F0F803216943EAC1031360DEE792
:100A28004C4B00221A6000F0C9FB0546484B1B6876
:100A380013F0020FD3D000F0C1FB401B0228F5D9F8
:100A4800032016E1444B00221A6000F0B7FB05466C
:100A58003F4B5B6F13F0020F06D000F0AFFB401B5B
:100A68000228F5D9032004E1236813F0040F78D095
:100A7800374B1B6C13F0805F33D100230193344B49
:100A88001A6C42F080521A641B6C03F08053019375
:100A9800019B0125314B1B6813F4807F23D0A36889
:100AA800012B34D0052B38D0294B1A6F22F00102C4
:100AB8001A671A6F22F004021A67A368002B36D04F
:100AC80000F07CFB0646224B1B6F13F0020F47D148
:100AD80000F074FB801B41F288339842F3D903205D
:100AE800C7E00025D6E71D4A136843F480731360F6
:100AF80000F064FB0646194B1B6813F4807FCED1C7
:100B080000F05CFB801B0228F5D90320B1E0104AF5
:100B1800136F43F001031367CFE70D4B1A6F42F0D1
:100B280004021A671A6F42F001021A67C5E700F05B
:100B380045FB0646064B1B6F13F0020F10D000F062
:100B48003DFB801B41F288339842F3D9032090E0A3
:100B58000038024000004742800E474200700040C3
:100B6800EDB9A369002B00F08380494A926802F02E
:100B78000C02082A51D0022B17D0464B00221A60CB
:100B880000F01CFB0446424B1B6813F0007F42D068
:100B980000F014FB001B0228F5D9032069E03C4A49
:100BA800136C23F080531364DBE73A4B00221A607E
:100BB80000F004FB0546364B1B6813F0007F06D097
:100BC80000F0FCFA401B0228F5D9032051E0E36944
:100BD800226A1343626A43EA8213A26A5208013AFC
:100BE80043EA0243E26A43EA0263294A5360294B13
:100BF80001221A6000F0E2FA0446254B1B6813F044
:100C0800007F06D100F0DAFA001B0228F5D903208C
:100C18002FE000202DE000202BE0012B2BD01C4BD7
:100C28005B6803F48001E269914226D103F03F0238
:100C3800216A8A4223D1616A47F6C0721A40B2EB30
:100C4800811F1ED103F44031A26A5208013AB1EB68
:100C5800024F18D103F07063E26AB3EB026F14D14C
:100C6800002006E001207047012002E0012000E09A
:100C7800002002B070BD0120FBE70120F9E7012048
:100C8800F7E70120F5E70120F3E70120F1E700BFCE
:100C98000038024060004742254B9B6803F00C0374
:100CA800042B40D0082B40D170B5214B5A6802F074
:100CB8003F025B6813F4800F12D01D4B5968C1F3D3
:100CC800881100231B48A1FB0001FFF719FB184BF3
:100CD8005B68C3F3014301335B00B0FBF3F070BD05
:100CE800134B5868C0F388100546002643011B1AA9
:100CF80066EB0604A10141EA93619801C01A61EB11
:100D08000401CB0043EA5073C4001946601946EB4E
:100D180001018B0243EA9053840220461946334668
:100D2800FFF7EEFAD3E7034870470348704700BF60
:100D38000038024040787D010024F400002800F0CB
:100D48009B8070B50446504B1B6803F007038B4229
:100D580008D2CBB24C4A1370136803F007038B42D6
:100D680040F08C80236813F0020F17D013F0040FA3
:100D780004D0464A936843F4E0539360236813F021
:100D8800080F04D0414A936843F4604393603F4A94
:100D9800936823F0F003A068034393600D4623682B
:100DA80013F0010F32D06368012B21D09A1E012A5B
:100DB80025D9364A126812F0020F61D033498A6881
:100DC80022F0030213438B6000F0F8F906462F4B1C
:100DD8009B6803F00C036268B3EB820F16D000F037
:100DE800EDF9801B41F288339842F0D9032042E0A4
:100DF800264A126812F4003FE0D101203BE0234A62
:100E0800126812F0007FD9D1012034E01E4B1B6814
:100E180003F00703AB4207D9EAB21B4B1A701B68F1
:100E280003F00703AB422DD1236813F0040F06D05B
:100E3800164A936823F4E053E1680B4393602368F0
:100E480013F0080F07D0114A936823F4604321690F
:100E580043EAC1039360FFF71FFF0C4B9B68C3F382
:100E680003130B4AD35CD8400A4B18600A4B186826
:100E780000F058F9002070BD012070470120FAE702
:100E88000120F8E70120F6E7003C02400038024064
:100E9800481A0008080000200400002000230F2B37
:100EA80000F2CA80F0B482B05DE086685F00032477
:100EB800BC4026EA0406CC68BC40344384604668DB
:100EC80026EA02064C68C4F300129A403243426094
:100ED80056E0DC08083450F8247003F00702960046
:100EE8000F22B24027EA02070A69B2403A4340F8A3
:100EF800242059E0042200E00022B2403A430234A0
:100F08004E4E46F824204E4A1468EA4302EA040684
:100F18004F6817F4803F01D045EA0406484C266024
:100F2800646802EA04064F6817F4003F01D045EAF6
:100F38000406434C6660A46802EA04064F6817F486
:100F4800801F01D045EA04063D4CA660E4682240B3
:100F58004E6816F4001F01D045EA0402384CE260DE
:100F680001330F2B65D801229A400C6804EA020568
:100F7800AA42F5D14C6804F00304013C012C94D931
:100F88004A6802F00302032A09D0C4685E000322FB
:100F9800B24024EA02048A68B2402243C2604A6826
:100FA80002F00302022A94D004685E000322B240D1
:100FB80024EA02044A6802F00302B24022430260B3
:100FC8004A6812F4403FCBD0002201921D4A546C6B
:100FD80044F480445464526C02F480420192019AB1
:100FE8009C08A61C154A52F8267003F003029600C6
:100FF8000F22B24027EA0207134A90423FF47CAF1F
:1010080002F5806290420ED002F5806290420CD0C8
:1010180002F5806290420AD002F5806290423FF465
:1010280069AF072269E7012267E7022265E7032221
:1010380063E702B0F0BC7047704700BF003801405A
:10104800003C014000380240000002400AB18161C2
:101058007047090481617047436901EA030221EA84
:10106800030141EA0241816170470000074AD368E1
:1010780023F4E0631B041B0C000200F4E060184337
:1010880040F0BF6040F40030D060704700ED00E0F1
:1010980030B4174BDB68C3F30223C3F10704042CF5
:1010A80028BF04241D1D062D01D9033B00E00023A1
:1010B8004FF0FF3505FA04F421EA0401994005FAD6
:1010C80003F322EA03031943002809DB0901C9B223
:1010D80000F1604000F5614080F8001330BC7047B3
:1010E80000F00F000901C9B2024B1954F6E700BF1E
:1010F80000ED00E014ED00E00138B0F1807F0AD285
:10110800064B5860064AF02182F8231000209860A8
:1011180007221A6070470120704700BF10E000E006
:1011280000ED00E010B504460E4B18784FF47A73C2
:10113800B3FBF0F30C4A1068B0FBF3F0FFF7DCFFE9
:1011480068B90F2C01D901200AE0002221464FF08E
:10115800FF30FFF79DFF054B1C60002000E00120D9
:1011680010BD00BF0000002008000020040000207F
:1011780008B50B4B1A6842F400721A601A6842F4F8
:1011880080621A601A6842F480721A600320FFF7BE
:101198006DFF0F20FFF7C6FFFFF72EFB002008BDED
:1011A800003C0240034A1168034B1B780B44136050
:1011B800704700BF8400002000000020014B186821
:1011C800704700BF8400002038B50446FFF7F6FFDB
:1011D8000546B4F1FF3F02D0044B1B781C44FFF7CF
:1011E800EDFF401BA042FAD338BD00BF000000202D
:1011F800034AD2F8883043F47003C2F88830704745
:1012080000ED00E02DE9F04383B004460F46164692
:101218001D46FFF7D3FF0A9B181A00EB0508FFF7D6
:10122800CDFF81462A4B1B68C3F3CB3308FB03F37E
:10123800019323689B6837EA03030CBF012300234B
:10124800B34240D0B5F1FF3FF3D0FFF7B7FFA0EBB3
:10125800090040450AD2B8F1000F07D0019A02B13F
:101268004246019B013B01939046E2E7226853689E
:1012780023F0E00353606368B3F5827F0BD0A36A61
:10128800B3F5005F14D0012384F85130002384F8AB
:101298005030032018E0A368B3F5004F02D0B3F52F
:1012A800806FECD12268136823F040031360E6E7EF
:1012B8002268136823F4005313602268136843F408
:1012C80000531360DFE7002003B0BDE8F08300BFE0
:1012D8000800002030B585B0164C2468164DA5FBD3
:1012E8000434640D4FF47A7505FB04F403944468E0
:1012F800B4F5827F0BD0039BC3B1039B013B0393DF
:1013080003689B6813F0800FF5D100230FE00B46AC
:101318000446009200228021FFF774FF034630B193
:10132800636D43F020036365032300E00023184640
:1013380005B030BD08000020819F5E1600285AD0F5
:1013480010B50446436A33B94368B3F5827F05D0C4
:101358000023C36102E00023036143610023A36209
:1013680094F85130002B40D0022384F85130226881
:10137800136823F040031360636803F48273A26860
:1013880002F404421343E26802F400621343226940
:1013980002F002021343626902F001021343A269D8
:1013A80002F400721343E26902F038021343226A1E
:1013B80002F080021343A26A02F400522168134328
:1013C8000B60638B03F00403626A02F01002216869
:1013D80013434B602268D36923F40063D361002070
:1013E8006065012384F8513010BD84F850302046E0
:1013F800FFF71EFAB8E7012070472DE9F04383B0E4
:1014080090F85040012C00F0C9801D46914688464E
:101418000446012380F85030FFF7D0FE074694F8C1
:101428005160F6B2012E40F0A680B8F1000F00F02E
:10143800A380B9F1000F00F09F80032384F8513096
:1014480000236365C4F83080A4F83490A4F836907B
:10145800A363A387E38763642364A368B3F5004F9A
:101468001DD023681A6812F0400F03D11A6842F0A1
:1014780040021A60E368B3F5006F1BD0636813B1CC
:10148800B9F1010F4FD1226B236812781A73236BBD
:1014980001332363E38E013B9BB2E38643E022687A
:1014A800136823F0400313602268136843F48043F1
:1014B8001360D6E7636813B1B9F1010F15D1226B38
:1014C80023681288DA60236B02332363E38E013BBF
:1014D8009BB2E38609E0FFF771FEC01BA84202D366
:1014E800B5F1FF3F52D1002D52D0E38E9BB2002BB5
:1014F8002CD023689A6812F0020FECD0226B128865
:10150800DA60236B02332363E38E013B9BB2E386ED
:10151800EBE7FFF753FEC01BA84202D3B5F1FF3F2C
:1015280038D1002D38D0E28E92B27AB123689A6809
:1015380012F0020FEDD0226B12781A73236B01336D
:101548002363E28E013A92B2E286ECE73A462946F4
:101558002046FFF7BFFE08B120236365A36833B9AF
:1015680001932368DA6801929B680193019B636D7C
:1015780013B9002600E00226012384F85130002325
:1015880084F85030304603B0BDE8F0830326F3E713
:101598000326F1E70326EFE70326EDE70226F1E746
:1015A80010B582B08DF807000C4C002208212046A7
:1015B800FFF74CFD002204212046FFF747FD4FF0BE
:1015C800FF3301220DF107010548FFF716FF01223D
:1015D80004212046FFF73AFD02B010BD000002408A
:1015E8002C00002010B582B08DF807000C4C0122A9
:1015F80008212046FFF72AFD002204212046FFF794
:1016080025FD4FF0FF3301220DF107010548FFF7D3
:10161800F4FE012204212046FFF718FD02B010BD98
:10162800000002402C00002038B505460C46012277
:1016380008210648FFF70AFD04B938BD4FF0FF330B
:10164800224629460248FFF7D8FEF6E70000024086
:101658002C000020F0B583B007460D4616461C4600
:101668002A20FFF79DFF3B0A8DF804308DF805709E
:10167800330A8DF806308DF8076004210DEB010060
:10168800FFF7D2FF2B20FFF78BFF2B0A8DF80430D2
:101698008DF80550230A8DF806308DF8074004218F
:1016A8000DEB0100FFF7C0FF2C20FFF779FF03B017
:1016B800F0BD000010B50B4C002210212046FFF7AA
:1016C800C5FCC820FFF780FD002204212046FFF753
:1016D800BDFCC820FFF778FD012210212046FFF746
:1016E800B5FC10BD0000024010B504462920FFF7E4
:1016F80057FF032C0DD8DFE804F0020D182348200B
:10170800FFF770FF144BF0221A80144B4FF4A072AD
:101718001A8010BD2820FFF765FF0F4B4FF4A07209
:101728001A800E4BF0221A80F3E78820FFF75AFF41
:10173800094BF0221A80094B4FF4A0721A80E8E78F
:10174800E820FFF74FFF044B4FF4A0721A80034BB9
:10175800F0221A80DDE700BF0E0000200C000020F8
:1017680008B5FFF7A7FF0120FFF71AFF4FF47A70BB
:10177800FFF72AFDCB20FFF713FF3920FFF732FFD1
:101788002C20FFF72FFF0020FFF72CFF3420FFF756
:1017980029FF0220FFF726FFCF20FFF701FF0020D7
:1017A800FFF720FFC120FFF71DFF3020FFF71AFFCA
:1017B800E820FFF7F5FE8520FFF714FF0020FFF76C
:1017C80011FF7820FFF70EFFEA20FFF7E9FE00205F
:1017D800FFF708FF0020FFF705FFED20FFF7E0FE09
:1017E8006420FFF7FFFE0320FFF7FCFE1220FFF73F
:1017F800F9FE8120FFF7F6FEF720FFF7D1FE202043
:10180800FFF7F0FEC020FFF7CBFE1020FFF7EAFE3F
:10181800C120FFF7C5FE1020FFF7E4FEC520FFF743
:10182800BFFE3E20FFF7DEFE2820FFF7DBFEC720C5
:10183800FFF7B6FE8620FFF7D5FE3620FFF7B0FE8D
:101848004820FFF7CFFE3A20FFF7AAFE5520FFF702
:10185800C9FEB120FFF7A4FE0020FFF7C3FE182041
:10186800FFF7C0FEB620FFF79BFE0820FFF7BAFE81
:101878008220FFF7B7FE2720FFF7B4FEF220FFF71C
:101888008FFE0020FFF7AEFE2620FFF789FE01201D
:10189800FFF7A8FEE020FFF783FE0F20FFF7A2FE68
:1018A8003120FFF79FFE2B20FFF79CFE0C20FFF74F
:1018B80099FE0E20FFF796FE0820FFF793FE4E20B4
:1018C800FFF790FEF120FFF78DFE3720FFF78AFE25
:1018D8000720FFF787FE1020FFF784FE0320FFF79D
:1018E80081FE0E20FFF77EFE0920FFF77BFE002019
:1018F800FFF778FEE120FFF753FE0020FFF772FEA6
:101908000E20FFF76FFE1420FFF76CFE0320FFF791
:1019180069FE1120FFF766FE0720FFF763FE3120FE
:10192800FFF760FEC120FFF75DFE4820FFF75AFE73
:101938000820FFF757FE0F20FFF754FE0C20FFF793
:1019480051FE3120FFF74EFE3620FFF74BFE0F20E9
:10195800FFF748FE1120FFF723FE7820FFF734FC3D
:101968000220FFF7C1FE08BD10B582B00446154B32
:101978001A88154B1B880A3B0A3A9BB292B20A2175
:101988000846FFF767FE230A8DF804308DF80540F6
:10199800012208210D48FFF759FB0024094B1A883A
:1019A800094B1B8803FB02F3A34208D94FF0FF330E
:1019B800022201A90648FFF720FD0134EEE702B034
:1019C80010BD00BF0E0000200C00002000000240E7
:1019D8002C000020DFF834D00D480E490E4A0023B1
:1019E80002E0D458C4500433C4188C42F9D30B4ACB
:1019F8000B4C002301E013600432A242FBD3FFF733
:101A0800F7FBFEF709FCFEF7CBFE7047000002204B
:101A18000000002010000020681A000810000020B4
:101A280088000020FEE70000F8B500BFF8BC08BC3D
:101A38009E467047F8B500BFF8BC08BC9E46704784
:101A48000000000000000000010203040607080966
:081A5800E0E8FF7F010000003F
:041A60000102000877
:041A6400D90100089C
:101A680001000000100000000024F400F000400114
:04000005080019DDF9
:00000001FF
